{
    "_format": "hh-sol-artifact-1",
    "contractName": "Sudoku",
    "sourceName": "contracts/Sudoku.sol",
    "abi": [
        {
            "inputs": [
                {
                    "internalType": "address",
                    "name": "_verifierAddr",
                    "type": "address"
                }
            ],
            "stateMutability": "nonpayable",
            "type": "constructor"
        },
        {
            "inputs": [
                {
                    "internalType": "string",
                    "name": "stringTime",
                    "type": "string"
                }
            ],
            "name": "generateSudokuBoard",
            "outputs": [
                {
                    "internalType": "uint8[9][9]",
                    "name": "",
                    "type": "uint8[9][9]"
                }
            ],
            "stateMutability": "view",
            "type": "function"
        },
        {
            "inputs": [],
            "name": "verifierAddr",
            "outputs": [
                {
                    "internalType": "address",
                    "name": "",
                    "type": "address"
                }
            ],
            "stateMutability": "view",
            "type": "function"
        },
        {
            "inputs": [
                {
                    "internalType": "uint256[2]",
                    "name": "a",
                    "type": "uint256[2]"
                },
                {
                    "internalType": "uint256[2][2]",
                    "name": "b",
                    "type": "uint256[2][2]"
                },
                {
                    "internalType": "uint256[2]",
                    "name": "c",
                    "type": "uint256[2]"
                },
                {
                    "internalType": "uint256[81]",
                    "name": "input",
                    "type": "uint256[81]"
                }
            ],
            "name": "verifyProof",
            "outputs": [
                {
                    "internalType": "bool",
                    "name": "",
                    "type": "bool"
                }
            ],
            "stateMutability": "view",
            "type": "function"
        },
        {
            "inputs": [
                {
                    "internalType": "uint256[2]",
                    "name": "a",
                    "type": "uint256[2]"
                },
                {
                    "internalType": "uint256[2][2]",
                    "name": "b",
                    "type": "uint256[2][2]"
                },
                {
                    "internalType": "uint256[2]",
                    "name": "c",
                    "type": "uint256[2]"
                },
                {
                    "internalType": "uint256[81]",
                    "name": "input",
                    "type": "uint256[81]"
                }
            ],
            "name": "verifySudoku",
            "outputs": [
                {
                    "internalType": "bool",
                    "name": "",
                    "type": "bool"
                }
            ],
            "stateMutability": "view",
            "type": "function"
        }
    ],
    "bytecode": "0x60806040526040518060600160405280604051806101200160405280604051806101200160405280600160ff168152602001600260ff168152602001600760ff168152602001600560ff168152602001600860ff168152602001600460ff168152602001600660ff168152602001600960ff168152602001600360ff168152508152602001604051806101200160405280600860ff168152602001600560ff168152602001600660ff168152602001600360ff168152602001600760ff168152602001600960ff168152602001600160ff168152602001600260ff168152602001600460ff168152508152602001604051806101200160405280600360ff168152602001600460ff168152602001600960ff168152602001600660ff168152602001600260ff168152602001600160ff168152602001600860ff168152602001600760ff168152602001600560ff168152508152602001604051806101200160405280600460ff168152602001600760ff168152602001600160ff168152602001600960ff168152602001600560ff168152602001600860ff168152602001600260ff168152602001600360ff168152602001600660ff168152508152602001604051806101200160405280600260ff168152602001600660ff168152602001600860ff168152602001600760ff168152602001600160ff168152602001600360ff168152602001600560ff168152602001600460ff168152602001600960ff168152508152602001604051806101200160405280600960ff168152602001600360ff168152602001600560ff168152602001600460ff168152602001600660ff168152602001600260ff168152602001600760ff168152602001600160ff168152602001600860ff168152508152602001604051806101200160405280600560ff168152602001600860ff168152602001600360ff168152602001600260ff168152602001600960ff168152602001600760ff168152602001600460ff168152602001600660ff168152602001600160ff168152508152602001604051806101200160405280600760ff168152602001600160ff168152602001600460ff168152602001600860ff168152602001600360ff168152602001600660ff168152602001600960ff168152602001600560ff168152602001600260ff168152508152602001604051806101200160405280600660ff168152602001600960ff168152602001600260ff168152602001600160ff168152602001600460ff168152602001600560ff168152602001600360ff168152602001600060ff168152602001600760ff168152508152508152602001604051806101200160405280604051806101200160405280600060ff168152602001600260ff168152602001600760ff168152602001600560ff168152602001600060ff168152602001600460ff168152602001600060ff168152602001600060ff168152602001600060ff168152508152602001604051806101200160405280600060ff168152602001600060ff168152602001600060ff168152602001600360ff168152602001600760ff168152602001600060ff168152602001600060ff168152602001600060ff168152602001600460ff168152508152602001604051806101200160405280600360ff168152602001600060ff168152602001600060ff168152602001600060ff168152602001600060ff168152602001600060ff168152602001600860ff168152602001600060ff168152602001600060ff168152508152602001604051806101200160405280600460ff168152602001600760ff168152602001600060ff168152602001600960ff168152602001600560ff168152602001600860ff168152602001600060ff168152602001600360ff168152602001600660ff168152508152602001604051806101200160405280600260ff168152602001600660ff168152602001600860ff168152602001600760ff168152602001600160ff168152602001600060ff168152602001600060ff168152602001600460ff168152602001600960ff168152508152602001604051806101200160405280600060ff168152602001600060ff168152602001600060ff168152602001600060ff168152602001600060ff168152602001600260ff168152602001600060ff168152602001600160ff168152602001600860ff168152508152602001604051806101200160405280600060ff168152602001600860ff168152602001600360ff168152602001600060ff168152602001600960ff168152602001600060ff168152602001600460ff168152602001600060ff168152602001600060ff168152508152602001604051806101200160405280600760ff168152602001600160ff168152602001600060ff168152602001600060ff168152602001600060ff168152602001600060ff168152602001600960ff168152602001600060ff168152602001600260ff168152508152602001604051806101200160405280600060ff168152602001600060ff168152602001600060ff168152602001600060ff168152602001600060ff168152602001600560ff168152602001600060ff168152602001600060ff168152602001600760ff168152508152508152602001604051806101200160405280604051806101200160405280600060ff168152602001600060ff168152602001600060ff168152602001600060ff168152602001600060ff168152602001600660ff168152602001600060ff168152602001600060ff168152602001600060ff168152508152602001604051806101200160405280600060ff168152602001600060ff168152602001600760ff168152602001600260ff168152602001600060ff168152602001600060ff168152602001600860ff168152602001600060ff168152602001600060ff168152508152602001604051806101200160405280600960ff168152602001600060ff168152602001600660ff168152602001600860ff168152602001600060ff168152602001600060ff168152602001600060ff168152602001600160ff168152602001600060ff168152508152602001604051806101200160405280600360ff168152602001600060ff168152602001600060ff168152602001600760ff168152602001600060ff168152602001600060ff168152602001600060ff168152602001600260ff168152602001600960ff168152508152602001604051806101200160405280600060ff168152602001600060ff168152602001600060ff168152602001600060ff168152602001600060ff168152602001600060ff168152602001600060ff168152602001600060ff168152602001600060ff168152508152602001604051806101200160405280600460ff168152602001600060ff168152602001600060ff168152602001600560ff168152602001600060ff168152602001600060ff168152602001600060ff168152602001600760ff168152602001600060ff168152508152602001604051806101200160405280600660ff168152602001600560ff168152602001600060ff168152602001600160ff168152602001600060ff168152602001600060ff168152602001600060ff168152602001600060ff168152602001600060ff168152508152602001604051806101200160405280600860ff168152602001600060ff168152602001600160ff168152602001600060ff168152602001600560ff168152602001600060ff168152602001600360ff168152602001600060ff168152602001600060ff168152508152602001604051806101200160405280600760ff168152602001600960ff168152602001600260ff168152602001600060ff168152602001600060ff168152602001600060ff168152602001600060ff168152602001600060ff168152602001600460ff16815250815250815250600190600362000b5f92919062000bda565b5034801562000b6d57600080fd5b50604051620020cf380380620020cf833981810160405281019062000b93919062000e1d565b806000806101000a81548173ffffffffffffffffffffffffffffffffffffffff021916908373ffffffffffffffffffffffffffffffffffffffff1602179055505062000e4f565b826003600902810192821562000c1f579160200282015b8281111562000c1e5782518290600962000c0d92919062000c32565b509160200191906009019062000bf1565b5b50905062000c2e919062000c87565b5090565b826009810192821562000c74579160200282015b8281111562000c735782518290600962000c6292919062000caf565b509160200191906001019062000c46565b5b50905062000c83919062000d50565b5090565b5b8082111562000cab576000818162000ca1919062000d78565b5060090162000c88565b5090565b826009601f0160209004810192821562000d3d5791602002820160005b8382111562000d0c57835183826101000a81548160ff021916908360ff160217905550926020019260010160208160000104928301926001030262000ccc565b801562000d3b5782816101000a81549060ff021916905560010160208160000104928301926001030262000d0c565b505b50905062000d4c919062000d8d565b5090565b5b8082111562000d74576000818162000d6a919062000dac565b5060010162000d51565b5090565b50806009019062000d8a919062000d50565b50565b5b8082111562000da857600081600090555060010162000d8e565b5090565b5060009055565b600080fd5b600073ffffffffffffffffffffffffffffffffffffffff82169050919050565b600062000de58262000db8565b9050919050565b62000df78162000dd8565b811462000e0357600080fd5b50565b60008151905062000e178162000dec565b92915050565b60006020828403121562000e365762000e3562000db3565b5b600062000e468482850162000e06565b91505092915050565b6112708062000e5f6000396000f3fe608060405234801561001057600080fd5b506004361061004c5760003560e01c80633e7c838f14610051578063663ea2e214610081578063c54d8fd31461009f578063e235ad2a146100cf575b600080fd5b61006b60048036038101906100669190610836565b6100ff565b60405161007891906108ba565b60405180910390f35b6100896101a0565b6040516100969190610916565b60405180910390f35b6100b960048036038101906100b491906109e6565b6101c4565b6040516100c69190610b84565b60405180910390f35b6100e960048036038101906100e49190610836565b6101dc565b6040516100f691906108ba565b60405180910390f35b600061010a82610298565b610149576040517f08c379a000000000000000000000000000000000000000000000000000000000815260040161014090610bfd565b60405180910390fd5b610155858585856101dc565b610194576040517f08c379a000000000000000000000000000000000000000000000000000000000815260040161018b90610c69565b60405180910390fd5b60019050949350505050565b60008054906101000a900473ffffffffffffffffffffffffffffffffffffffff1681565b6101cc6104f2565b6101d5826103f3565b9050919050565b60008060009054906101000a900473ffffffffffffffffffffffffffffffffffffffff1673ffffffffffffffffffffffffffffffffffffffff1663e235ad2a868686866040518563ffffffff1660e01b815260040161023e9493929190610eb6565b60206040518083038186803b15801561025657600080fd5b505afa15801561026a573d6000803e3d6000fd5b505050506040513d601f19601f8201168201806040525081019061028e9190610f29565b9050949350505050565b6000806001905060005b60038110156103e8576001915060005b600182600381106102c6576102c5610f56565b5b505060098110156103bf5760005b600183600381106102e8576102e7610f56565b5b6009020182600981106102fe576102fd610f56565b5b505060098110156103ad576001836003811061031d5761031c610f56565b5b60090201826009811061033357610332610f56565b5b01816009811061034657610345610f56565b5b602091828204019190069054906101000a900460ff1660ff16868284600961036e9190610fb4565b610378919061100e565b6051811061038957610388610f56565b5b60200201511461039c57600093506103ad565b806103a690611064565b90506102d4565b50806103b890611064565b90506102b2565b506001151582151514156103d75781925050506103ee565b806103e190611064565b90506102a2565b50809150505b919050565b6103fb6104f2565b60006003444233866040516020016104169493929190611190565b6040516020818303038152906040528051906020012060001c6104399190611209565b90506001816003811061044f5761044e610f56565b5b60090201600980602002604051908101604052809291906000905b828210156104e6578382016009806020026040519081016040528092919082600980156104d2576020028201916000905b82829054906101000a900460ff1660ff168152602001906001019060208260000104928301926001038202915080841161049b5790505b50505050508152602001906001019061046a565b50505050915050919050565b6040518061012001604052806009905b61050a610520565b8152602001906001900390816105025790505090565b604051806101200160405280600990602082028036833780820191505090505090565b6000604051905090565b600080fd5b600080fd5b600080fd5b6000601f19601f8301169050919050565b7f4e487b7100000000000000000000000000000000000000000000000000000000600052604160045260246000fd5b6105a58261055c565b810181811067ffffffffffffffff821117156105c4576105c361056d565b5b80604052505050565b60006105d7610543565b90506105e3828261059c565b919050565b600067ffffffffffffffff8211156106035761060261056d565b5b602082029050919050565b600080fd5b6000819050919050565b61062681610613565b811461063157600080fd5b50565b6000813590506106438161061d565b92915050565b600061065c610657846105e8565b6105cd565b905080602084028301858111156106765761067561060e565b5b835b8181101561069f578061068b8882610634565b845260208401935050602081019050610678565b5050509392505050565b600082601f8301126106be576106bd610557565b5b60026106cb848285610649565b91505092915050565b600067ffffffffffffffff8211156106ef576106ee61056d565b5b602082029050919050565b600061070d610708846106d4565b6105cd565b905080604084028301858111156107275761072661060e565b5b835b81811015610750578061073c88826106a9565b845260208401935050604081019050610729565b5050509392505050565b600082601f83011261076f5761076e610557565b5b600261077c8482856106fa565b91505092915050565b600067ffffffffffffffff8211156107a05761079f61056d565b5b602082029050919050565b60006107be6107b984610785565b6105cd565b905080602084028301858111156107d8576107d761060e565b5b835b8181101561080157806107ed8882610634565b8452602084019350506020810190506107da565b5050509392505050565b600082601f8301126108205761081f610557565b5b605161082d8482856107ab565b91505092915050565b600080600080610b2085870312156108515761085061054d565b5b600061085f878288016106a9565b94505060406108708782880161075a565b93505060c0610881878288016106a9565b9250506101006108938782880161080b565b91505092959194509250565b60008115159050919050565b6108b48161089f565b82525050565b60006020820190506108cf60008301846108ab565b92915050565b600073ffffffffffffffffffffffffffffffffffffffff82169050919050565b6000610900826108d5565b9050919050565b610910816108f5565b82525050565b600060208201905061092b6000830184610907565b92915050565b600080fd5b600067ffffffffffffffff8211156109515761095061056d565b5b61095a8261055c565b9050602081019050919050565b82818337600083830152505050565b600061098961098484610936565b6105cd565b9050828152602081018484840111156109a5576109a4610931565b5b6109b0848285610967565b509392505050565b600082601f8301126109cd576109cc610557565b5b81356109dd848260208601610976565b91505092915050565b6000602082840312156109fc576109fb61054d565b5b600082013567ffffffffffffffff811115610a1a57610a19610552565b5b610a26848285016109b8565b91505092915050565b600060099050919050565b600081905092915050565b6000819050919050565b600060099050919050565b600081905092915050565b6000819050919050565b600060ff82169050919050565b610a8581610a6f565b82525050565b6000610a978383610a7c565b60208301905092915050565b6000602082019050919050565b610ab981610a4f565b610ac38184610a5a565b9250610ace82610a65565b8060005b83811015610aff578151610ae68782610a8b565b9650610af183610aa3565b925050600181019050610ad2565b505050505050565b6000610b138383610ab0565b6101208301905092915050565b6000602082019050919050565b610b3681610a2f565b610b408184610a3a565b9250610b4b82610a45565b8060005b83811015610b7c578151610b638782610b07565b9650610b6e83610b20565b925050600181019050610b4f565b505050505050565b6000610a2082019050610b9a6000830184610b2d565b92915050565b600082825260208201905092915050565b7f5468697320626f61726420646f6573206e6f7420657869737400000000000000600082015250565b6000610be7601983610ba0565b9150610bf282610bb1565b602082019050919050565b60006020820190508181036000830152610c1681610bda565b9050919050565b7f46696c65642070726f6f6620636865636b000000000000000000000000000000600082015250565b6000610c53601183610ba0565b9150610c5e82610c1d565b602082019050919050565b60006020820190508181036000830152610c8281610c46565b9050919050565b600060029050919050565b600081905092915050565b6000819050919050565b610cb281610613565b82525050565b6000610cc48383610ca9565b60208301905092915050565b6000602082019050919050565b610ce681610c89565b610cf08184610c94565b9250610cfb82610c9f565b8060005b83811015610d2c578151610d138782610cb8565b9650610d1e83610cd0565b925050600181019050610cff565b505050505050565b600060029050919050565b600081905092915050565b6000819050919050565b600081905092915050565b610d6881610c89565b610d728184610d54565b9250610d7d82610c9f565b8060005b83811015610dae578151610d958782610cb8565b9650610da083610cd0565b925050600181019050610d81565b505050505050565b6000610dc28383610d5f565b60408301905092915050565b6000602082019050919050565b610de481610d34565b610dee8184610d3f565b9250610df982610d4a565b8060005b83811015610e2a578151610e118782610db6565b9650610e1c83610dce565b925050600181019050610dfd565b505050505050565b600060519050919050565b600081905092915050565b6000819050919050565b6000602082019050919050565b610e6881610e32565b610e728184610e3d565b9250610e7d82610e48565b8060005b83811015610eae578151610e958782610cb8565b9650610ea083610e52565b925050600181019050610e81565b505050505050565b6000610b2082019050610ecc6000830187610cdd565b610ed96040830186610ddb565b610ee660c0830185610cdd565b610ef4610100830184610e5f565b95945050505050565b610f068161089f565b8114610f1157600080fd5b50565b600081519050610f2381610efd565b92915050565b600060208284031215610f3f57610f3e61054d565b5b6000610f4d84828501610f14565b91505092915050565b7f4e487b7100000000000000000000000000000000000000000000000000000000600052603260045260246000fd5b7f4e487b7100000000000000000000000000000000000000000000000000000000600052601160045260246000fd5b6000610fbf82610613565b9150610fca83610613565b9250817fffffffffffffffffffffffffffffffffffffffffffffffffffffffffffffffff048311821515161561100357611002610f85565b5b828202905092915050565b600061101982610613565b915061102483610613565b9250827fffffffffffffffffffffffffffffffffffffffffffffffffffffffffffffffff0382111561105957611058610f85565b5b828201905092915050565b600061106f82610613565b91507fffffffffffffffffffffffffffffffffffffffffffffffffffffffffffffffff8214156110a2576110a1610f85565b5b600182019050919050565b6000819050919050565b6110c86110c382610613565b6110ad565b82525050565b60008160601b9050919050565b60006110e6826110ce565b9050919050565b60006110f8826110db565b9050919050565b61111061110b826108f5565b6110ed565b82525050565b600081519050919050565b600081905092915050565b60005b8381101561114a57808201518184015260208101905061112f565b83811115611159576000848401525b50505050565b600061116a82611116565b6111748185611121565b935061118481856020860161112c565b80840191505092915050565b600061119c82876110b7565b6020820191506111ac82866110b7565b6020820191506111bc82856110ff565b6014820191506111cc828461115f565b915081905095945050505050565b7f4e487b7100000000000000000000000000000000000000000000000000000000600052601260045260246000fd5b600061121482610613565b915061121f83610613565b92508261122f5761122e6111da565b5b82820690509291505056fea26469706673582212204fab054e832ce0b5e493801d2ef0195e74cc617680c304d8b0e7725026aaf25d64736f6c63430008090033",
    "linkReferences": {},
    "deployedLinkReferences": {}
}